:020000040800F2
:1000000000100020A9040008294E0008294E00080D
:10001000294E0008294E0008294E0008294E0008E4
:10002000294E0008294E0008294E0008294E0008D4
:10003000294E0008294E0008294E0008294E0008C4
:10004000294E0008294E0008294E0008294E0008B4
:10005000294E0008294E0008294E0008294E0008A4
:10006000294E000861040008674C0008294E00086A
:10007000294E0008294E0008294E0008294E000884
:10008000294E0008294E0008294E0008294E000874
:10009000294E0008294E00084D0D0008294E000881
:1000A000294E0008294E0008294E0008294E000854
:1000B000294E0008294E0008294E0008294E000844
:1000C000294E0008294E0008294E0008294E000834
:1000D000294E0008294E0008294E0008294E000824
:1000E000294E0008294E0008294E0008294E000814
:1000F000294E0008294E0008294E0008294E000804
:10010000294E0008294E0008294E0008294E0008F3
:10011000294E0008294E0008294E0008294E0008E3
:10012000294E0008294E0008294E0008294E0008D3
:10013000294E0008294E0008294E0008294E0008C3
:10014000294E0008294E0008294E0008294E0008B3
:10015000294E0008294E000863520008294E000865
:10016000294E0008294E0008294E0008294E000893
:10017000013800D0FCE770470348044B834202D0AB
:10018000034B03B118477047641400206414002027
:1001900000000000064B0749C91A891048BF013109
:1001A000491003D0044B0BB101481847704700BFFA
:1001B00064140020641400200000000010B5064CF8
:1001C000237843B9FFF7D8FF044B13B10448AFF3CA
:1001D00000800123237010BD761300200000000072
:1001E000945E000808B5054B1BB105490548AFF3FF
:1001F0000080BDE80840FFF7CDBF00BF0000000051
:1002000000100020945E0008A3F5803A704700BFFC
:10021000174B002B08BF134B9D46FFF7F5FF00213E
:100220008B460F461348144A121A05F0ADF80E4BD0
:10023000002B00D098470D4B002B00D09847002092
:10024000002104000D000D48002802D00C48AFF337
:10025000008004F005F92000290004F0E1FC03F01F
:10026000F1FF00BF000008000000000000000000D7
:100270000010002000100020D0130020000000001B
:100280000000000030B587B0094D01AC0FCD0FC4A0
:100290002B6801A8236000F091FA4FF0B640054B9F
:1002A0004021186004F0A9FD00B1FEE707B030BDA1
:1002B000F45700081810002007B50A486B46402183
:1002C000006801AA04F04FFD38B9DDE900120648C4
:1002D00004F06EF803B05DF804FB044804F068F81D
:1002E000F8E700BF18100020B8570008D8570008DA
:1002F00010B54FF480301D491D4A4B6E5066486E54
:100300004FF000414AF6CD3451661A4903F4803368
:100310004A6C0C6402F001024C6BE407FCD401242B
:1003200015494C60A1F500510C6BE407FCD50AB1EE
:10033000124A0A640028A2BF4FF00041104A5166D9
:100340001BB94FF480320E4B5A6604F082FE00F067
:1003500097F804F07CFE02F037FF04F00BFE02F089
:1003600049FFBDE8104000F081B800BF0080005098
:100370000090005000400950006009503254FFFFC7
:1003800000A0005008B5044804F0FBFDBDE808409B
:10039000024800F013BA00BF205C0008D013002010
:1003A00030B595B0204D0DAC0FCD0FC495E80700CA
:1003B000292384E80700092500210A241B4A0DF19E
:1003C0002600CDE902230E22CDE9041106918DF815
:1003D00013408DF8115004F0D7FF4FF48021144BD7
:1003E0001448CDE90713144B0DAA0A9350230B931D
:1003F00040F20113ADF83030104B07A9009302AB67
:100400008DF825408DF8245003F002FA044618B107
:1004100088210B4804F01CFD00214FF4E13004F06A
:100420006BFC204615B030BD3858000800C00550A0
:1004300024C0055068100020771300201C100020F5
:100440000858000808B5FFF7ABFF28B1BDE8084021
:10045000B821024804F0FCBC08BD00BF08580008E1
:10046000014804F092BE00BF6810002008B50348A0
:1004700004F087FDBDE8084004F0DCBB205C000808
:10048000014804F07EBD00BF205C00080348044A18
:100490000449121A921004F0C8BC00BF7001000891
:1004A00070010008D013002008B500F02FF8FFF706
:1004B000EDFF124B12498B4212D30020114B12490F
:1004C0008B4218D3FFF7A4FE186850F822405868F2
:1004D00040F82240013298688242F5D30C33EAE7B3
:1004E0000022F8E71C6844F8220001325C68A2424E
:1004F000F8D30833E4E70022F8E700BF9C5E000869
:10050000A85E0008A85E0008A85E000870B54FF459
:100510008041124B124A134D9A60D3F8882005F59A
:10052000005442F47002C3F888200F4A91664FF0DD
:10053000FF3222660D4A62660222C3F8D020BFF362
:100540004F8FBFF36F8F4FF44036002002F09CFEB8
:100550000020E66002F07EFE2E6170BD00ED00E03E
:100560000000000800800044009000507FFF7F01E1
:10057000014B1868704700BFE8130020014B18605A
:10058000704700BFE8130020084B1B6F03F0070300
:10059000022B04D0032B05D0012B05D0FEE7044B22
:1005A00018687047034BFBE7034870470080005012
:1005B000E8130020F0130020002D310108B5FFF7EB
:1005C000E3FF054B1B6FC3F303330133B0FBF3F0C1
:1005D000024B186008BD00BF00800050E4130020EB
:1005E0000048704700B4C404014B1868704700BF4E
:1005F000F0130020054B1860054B1B6F03F0070339
:10060000032B01D1FFF7DABF704700BFF0130020C2
:100610000080005000487047002D31014FF0B44376
:100620009868C0F304400C280AD8DFE800F00B09F2
:1006300009090909072119091B1D1F000F487047E7
:10064000002070479B6803F04073B3F1807F11D0A6
:10065000B3F1007F10D00A4A002B08BF1046704744
:10066000084870470848704708487047084870476E
:10067000084870470848704708487047405DC60002
:1006800000093D00C0EA210180BA8C010048E80160
:10069000005A62020024F40080841E0040420F00D1
:1006A000014B1868704700BFEC13002013B50024FD
:1006B0002948019404F065FC01230422032120460B
:1006C00001F086FE204604F04FFC0122234B05205A
:1006D000C3F8442401A904F04FFC002839D1204B71
:1006E000D3F8F02042F00102C3F8F020D3F8FC2048
:1006F00042F08072C3F8FC201A4AA3F55D431A60E9
:10070000019B194A03F5D52303F2FC43B3FBF2F333
:10071000164A013B13610223C2F8F0304FF4807394
:10072000C2F804334FF06043114AC3F8B02F114AA6
:10073000C3F8802ED3F8002E42F48072C3F8002E46
:10074000FF2283F82020D3F8002E22F48072C3F811
:10075000002E02B010BD00BF205C000800D0035086
:1007600000ED00E0FF030040F8590D00000004E038
:1007700055CEACC50900010030B54FF06043D3F849
:10078000802ED20715D501240B4D8440D5F8FC20CE
:1007900042F08072C5F8FC20D3F8002E2243C3F843
:1007A000002E53F82020002AF0D003F8201000205B
:1007B00030BD1120FCE700BF00ED00E02DE9F04F57
:1007C00085B0044618B9AD21464804F041FB2368C2
:1007D000B3F1B64F07D0444A93427BD1434804F06B
:1007E000D0FB012503E0424804F0CBFB00250123A8
:1007F0000A22A179207901F0EBFD01230A22E17997
:10080000607901F0E5FD4FF00A08DFF8F090DFF8BD
:10081000F0A0384F267994F806B0032E05D83AF8A0
:10082000163023FA0BF3DA0704D440F2FE314846BF
:1008300004F00EFB3022012302FB067603FA0BF3D1
:1008400006F501563360642003F040FB267994F8E6
:1008500006B0032E06D8284B33F8163023FA0BF3D4
:10086000DB0704D440F22D41484604F0F1FA30226F
:10087000012302FB067603FA0BF306F58256642089
:10088000336003F023FBB8F10108C3D1032307EB66
:100890000512C2F83835A1792379543543EA01436A
:1008A000C2F83C35E27963792D0143EA02437B517A
:1008B00040F20113ADF80030E36869460293A36883
:1008C00020680193237C8DF80C3001F06BFE05B09D
:1008D000BDE8F08FD221034805B0BDE8F04F04F029
:1008E000B7BA00BF5458000800800650185C0008D2
:1008F0001C5C000800C003500E590008B6580008E0
:100900000E59000838B5054601F09CFF044C01283B
:1009100001D1013C00D138BD284601F075FEF6E753
:10092000E19304002DE9F04F85B09A46554B0646F9
:100930001B780F461546DDF83C909DF844B0DDF875
:100940005080002B00F09780072A00F296800E9BC3
:10095000002B00F09280B9F1000F00F08E80129B06
:10096000B3F5006F00F38980012803D1109B002BA1
:1009700000F08380444B03EB05131B7B002B7ED0E0
:10098000424C10220021684604F0FEFC04EB4514A2
:100990001022A7BB3946204604F0F6FC43F21003B0
:1009A0006380BBF1000F03D1E37843F00303E370EE
:1009B000364A0E9B02EB451CCCE90193129B690160
:1009C000581E9DF84C30C0F30A0003F003039B0649
:1009D00043EA001E53582E48012E00EA03004EEA57
:1009E0000003CDF800A0535017D0B8F1000F2ED15E
:1009F0009CF8023068F304138CF8023027E00021E1
:100A0000204604F0C1FC4FF444736380BBF1000F37
:100A1000CED1E37843F03003C9E713230CF1100E75
:100A2000CCF80C309CE80F008EE80F006FF003014B
:100A3000DCF81C20109B61F39F02012FCCF81C20D6
:100A4000CCF8143003D1CCF81890CCF8043000273F
:100A50000D4A290102EB051342F80180159A284638
:100A60005A60694622469F605E7301F0C7FF3846B0
:100A700005B0BDE8F08F0748FAE70748F8E70748F0
:100A8000F6E700BFC713002080110020801000206F
:100A90000F80FFF3028000F0018000F0078000F07B
:100AA00038B5124B05461B78DBB1E0B104F0D8F93C
:100AB0000F4A00231146147B54B92B6001251A01FB
:100AC00001EB03131D738C5004F0D0F9204638BDA0
:100AD0000133082B02F11002EDD104F0C7F90548EB
:100AE000F5E70548F3E70548F1E700BFC713002025
:100AF00080110020048000F0028000F0018000F0EE
:100B000038B504F0ADF9002305460B4A147B6CB9E7
:100B10000133082B02F11002F8D101F0F1FE074B6E
:100B200028461C7004F0A2F9204603E0284604F091
:100B30009DF9034838BD00BF80110020C713002075
:100B4000058000F010B50D4B04461B7893B10728C3
:100B500012D804F085F90A4B03EB04131A7B2AB16F
:100B600000241C7304F082F9204610BD04F07EF9C5
:100B70000448FAE70448F8E70448F6E7C7130020FA
:100B800080110020068000F0028000F0018000F05B
:100B900013B5154B1868002301908DF8043004F04C
:100BA0005FF9124B1C7824B104F060F9104802B0D0
:100BB00010BD01221A7004F059F90E4B01A81C73E4
:100BC0001C7783F82C4083F83C4083F84C4083F832
:100BD0005C4083F86C4083F87C4008238DF8073034
:100BE00001F0C4FE2046E2E716590008C7130020B2
:100BF000038000F08011002008B50A4A12785AB12B
:100C000007280BD8084A02EB00131B7B43B10021D5
:100C100001F08CFE002008BD0448FCE70448FAE718
:100C20000448F8E7C713002080110020028000F07C
:100C3000018000F0078000F008B50A4A12785AB126
:100C400007280BD8084A02EB00131B7B43B1012194
:100C500001F06CFE002008BD0448FCE70448FAE7F8
:100C60000448F8E7C713002080110020028000F03C
:100C7000018000F0078000F008B50A4A127852B1EE
:100C800007280AD8084A02EB00131B7B3BB101F08E
:100C90003BFF002008BD0548FCE70548FAE705488A
:100CA000F8E700BFC713002080110020028000F089
:100CB000018000F0078000F00D4B1B7893B10728EE
:100CC00012D889B10B4B03EB00131B7B73B10A4B9A
:100CD0001A6D01238340134214BF01230023002017
:100CE0000B707047054870470548704705487047C6
:100CF000C71300208011002000000450028000F083
:100D0000018000F0078000F010B50B4A0C46127805
:100D100062B107280CD859B1084A02EB00131B7BBB
:100D200043B101F00DFF2070002010BD0448FCE726
:100D30000448FAE70448F8E7C713002080110020B0
:100D4000028000F0018000F0078000F02DE9F04102
:100D5000174B1F6D5B6D1F4000D5FEE70126002578
:100D6000144CDFF85880374218D02368C8F8506018
:100D7000A3B1A168284601316268A1609847637BEE
:100D8000012B0BD150B90C4B03EB45131A7B60F3CD
:100D900041021A731A7F60F341021A770135082D58
:100DA0004FEA460604F11004DDD1BDE8F08100BF32
:100DB000000004508011002080100020002004500A
:100DC000044BD3F88420D206FBD4D3F88400C0F3BC
:100DD000811070470040005008B5334B98424FD007
:100DE00027D8324B984245D017D8314B98423ED045
:100DF0000AD838B12F4B984239D041F2A6312E484B
:100E000004F026F8002034E02C4B98422FD02C4BD5
:100E10009842F2D12B4B586E2BE02B4B98422CD0A2
:100E200003F5371303F5D8639842E6D1254B986F45
:100E30001FE0264B98422FD00CD8254B984223D048
:100E4000244B984224D0244B9842D6D11D4BD3F842
:100E500084000EE0214B984222D003F5740303F581
:100E600010539842C9D1174BD3F8980001E0154BA5
:100E7000986D08BD134B186FFBE7124B586FF8E7DE
:100E8000104BD3F88000F4E70E4BD3F88800F0E75E
:100E90000C4BD3F88C00ECE70A4BD3F89000E8E752
:100EA000084BD3F89400E4E780BA8C01405DC6009B
:100EB00080841E0040420F001A59000800093D00BE
:100EC000C0CF6A000080E00F0024F400007E5603CB
:100ED00080D54302006CDC020048E8010090D0039A
:100EE00038B51A4B0546D3F820010C4600F0070030
:100EF000062821D8DFE800F028040C1410181C0084
:100F0000FFF736FB052305B1286004B1236038BD27
:100F1000FFF76AFB0323F6E7FFF780FB0723F2E7FF
:100F2000FFF778FB0223EEE7FFF722FB0623EAE751
:100F3000FFF75AFB0423E6E7054841F27C2103F062
:100F400087FF00231846DEE70123DCE7008000501E
:100F50001A59000838B5194B0546D3F828310C4604
:100F600003F00703013B052B20D8DFE803F0031350
:100F70001B0F0B17FFF7FCFA052305B1286004B11E
:100F8000236038BDFFF7F4FA0623F6E7FFF746FBC8
:100F90000723F2E7FFF728FB0323EEE7FFF724FB25
:100FA0000423EAE7FFF736FB0223E6E7044841F2B1
:100FB000840103F04DFF00231846DEE70080005057
:100FC0001A590008F7B50027144B0197D3F8804150
:100FD000064604F00304022C0D4614D0032C0DD059
:100FE000012C14D1394601A8FFF77AFF0F240EB166
:100FF000019B336005B12C6003B0F0BDFFF70EFB21
:1010000007240190F3E7FFF705FB0190EFE741F2BA
:10101000D131034803F01CFF3C46E8E70080005054
:101020001A59000838B50F4B0546D3F890320C46D4
:1010300003F00303012B09D0022B0BD1FFF7EEFACB
:10104000072305B1286004B1236038BDFFF7E2FA39
:101050000223F6E7044841F2701103F0F9FE002381
:101060001846EEE7008000501A59000837B50023F3
:101070000193194B0546D3F820320C4603F00703C1
:10108000042B1FD8DFE803F025030F1419000021FB
:1010900001A8FFF75FFF11230DB1019A2A6004B187
:1010A000236003B030BDFFF7B9FA07230190F3E7DF
:1010B00003F0C8FE0A230190EEE7FFF7F1FA0923D7
:1010C0000190E9E741F24301044803F0C1FE002327
:1010D000E2E70123E0E700BF008000501A59000852
:1010E00038B5104B0546D3F840310C4603F00303E6
:1010F000022B0BD0032B0DD0012B0FD103F0A2FE3E
:101100000A2305B1286004B1236038BDFFF7C8FA8F
:101110000923F6E703F099FE0B23F2E701230020F1
:10112000EFE700BF0080005037B500230193184B54
:101130000546D3F860320C4603F00703013B032B4E
:101140001FD8DFE803F0020E1914002101A8FFF7F1
:10115000C7FE0F230DB1019A2A6004B1236003B0CA
:1011600030BD002101A8FFF7BBFF1023F2E7FFF716
:1011700055FA07230190EDE7FFF74CFA022301909F
:10118000E8E741F2E801034803F062FE0023E1E7EB
:10119000008000501A59000873B500240F4B0194C9
:1011A000D3F87032064603F00303012B0D4607D037
:1011B000022B11D041F24611094803F049FE04E028
:1011C000214601A8FFF78CFF10240EB1019B33606C
:1011D00005B12C6002B070BD1424F6E70080005009
:1011E0001A59000838B5164B0546D3F800020C46CC
:1011F00000F00700042819D8DFE800F020030B0FE7
:10120000130003F01FFE0A2305B1286004B1236018
:1012100038BDFFF745FA0923F6E703F016FE0B2366
:10122000F2E7FFF7CBF90E23800AEDE7054841F21C
:101230008F4103F00DFE00231846E5E70123E3E7A5
:10124000008000501A59000838B5164B0546D3F8EF
:1012500008020C4600F00700042819D8DFE800F067
:1012600020030B0F130003F0EDFD0A2305B12860E6
:1012700004B1236038BDFFF713FA0923F6E703F042
:10128000E4FD0B23F2E7FFF799F90E23800AEDE75F
:10129000054841F2C74103F0DBFD00231846E5E7AE
:1012A0000123E3E7008000501A59000838B5104BBD
:1012B0000546D3F840320C4603F00303022B0BD053
:1012C000032B0DD0012B0FD103F0BCFD0A2305B178
:1012D000286004B1236038BDFFF7E2F90923F6E77F
:1012E00003F0B3FD0B23F2E701230020EFE700BF7B
:1012F0000080005038B5124B0546D3F850320C46EA
:1013000003F00303022B0FD0032B05D0012B0FD1C9
:1013100003F098FD0A2302E003F097FD0B2305B1CB
:10132000286004B1236038BDFFF7BAF90923F6E756
:10133000044841F2B40103F08BFD00231846EEE7A8
:10134000008000501A59000838B5104B0546D3F8F4
:1013500060310C4603F00303022B0BD0032B0DD09E
:10136000012B0FD103F06EFD0A2305B1286004B1F3
:10137000236038BDFFF794F90923F6E703F065FD14
:101380000B23F2E701230020EFE700BF00800050AD
:1013900010B5B0F5207F34D009D8B0F5007F2AD041
:1013A00003D898B1B0F5C07F10D0002421E0B0F58B
:1013B000607FFAD1154BD3F88030C3F301149B063C
:1013C00017D5032C15D040F296210FE00F4B1C6F60
:1013D000230B13F00E0FC4F303340AD0072C08D0EC
:1013E0000F2C06D0032C04D040F28621084803F0CD
:1013F0002FFD601C10BD054BD3F89040C4F304646E
:10140000F7E7024B1C6FC4F38024F2E70080005022
:101410001A59000838B54FF48032104B04469A66CA
:1014200000200D46FFF7B4FF41F671320C4B6043CC
:10143000DC69DA635A6804F4803422F440125DB93E
:101440000849884294BF00200120000502435A60E9
:101450000CB10022DA6338BD0349F2E70090005076
:1014600000000350005A6202002D310138B54309D3
:1014700004460D460ED140F233310D4803F0E8FC2E
:10148000002304F01F0485B103F580530122A2401C
:101490001A6038BD012B04D0022B04D040F2413138
:1014A000EBE7044BEDE7044BEBE703F50053EDE707
:1014B0001A590008648000506880005030B585B02B
:1014C0000021B0F5807F0446019100F000816BD8C7
:1014D000002800F0DA80A0F12004602C74D8602C81
:1014E00072D8DFE814F0D200D500D200D500EA00AF
:1014F000EA00EA00EA00EA00D500EF007D000501FD
:101500009D007D00D500D500D500710071007100EF
:1015100071007100710071000501D500D500D50082
:101520001D010A01D5007100710071007100710088
:1015300071007100710071007100710071000F0184
:10154000EA00D200D200D200B0007D007D00B800D9
:1015500014019200C700C700710071007100710092
:1015600071007100710071007100710071007100F3
:1015700071007100710071007100710071007100E3
:1015800071007100710071007100710071007100D3
:1015900071007100710071007100710071007100C3
:1015A000710071007100CC00B0F5E06F00F0A58013
:1015B0003BD8B0F5607F76D01DD8B0F5007F72D0F3
:1015C00008D8B0F5C07F60D04FF49361574803F05E
:1015D0003FFC57E0B0F5207F5AD0B0F5407FF3D103
:1015E000FEF7ECFF04464FF42070FFF7D1FEB4FB8A
:1015F000F0F4640855E0B0F5B06F63D00AD8B0F5E8
:10160000806F5AD0B0F5A06FDED1002101A8FFF79E
:101610002DFD37E0B0F5C06F6AD0B0F5D06FD3D1F3
:10162000002101A8FFF7DEFD2CE0B0F5286F6ED099
:1016300016D8B0F5186F65D00AD8B0F5F06F6FD036
:10164000B0F5106FC0D1002101A8FFF7FDFD19E032
:10165000B0F5206FB8D1002101A8FFF765FD11E0BA
:10166000B0F5306F58D0AFD3B0F5386F40D0B0F58B
:10167000406FA9D1002101A8FFF76CFC02E0FEF742
:1016800083FF0190019805B030BDFEF797FFF8E7A2
:10169000FEF794FF04464FF42070FFF779FEB4FB89
:1016A000F0F40194EEE7FEF76FFF05462046FFF7E2
:1016B0006FFEB5FBF0F50195E4E7002101A8FFF707
:1016C0000FFCDFE7002101A8FFF77CFCDAE74FF011
:1016D000E02302911B695B0705D5FEF76FFF0290BF
:1016E000029B0193CEE703A902A8FFF7F9FCF7E7F5
:1016F000002101A8FFF7F4FCC4E7002101A8FFF7CF
:10170000D5FDBFE7002101A8FFF7F4FDBAE70021EE
:1017100001A8FFF741FDB5E701A8FFF783FCB1E79A
:10172000002101A8FFF710FEACE700BF1A5900081E
:1017300008B58020FFF7C2FE034B98429EBF4FF4CE
:101740008032024B1A6708BD005A620200A00050A6
:101750001FB503460020B3F5807F019000F0D780CD
:1017600077D8582B68D8382B05D8243B092B49D972
:1017700040F27D51BFE0393B1F2BF9D801A252F84E
:1017800023F000BF31190008711700087117000815
:10179000711700083B19000881190008711700082B
:1017A00071170008711700087117000871170008F9
:1017B00071170008711700087117000871170008E9
:1017C00071170008711700087117000871170008D9
:1017D0008B190008791800087117000871170008A4
:1017E00071170008BD18000871170008711700086C
:1017F000951900089F19000877190008DF180008DC
:10180000DF180008092BB3D801A252F823F000BF5B
:101810007918000879180008791800087918000864
:101820007918000871170008FF18000871170008E0
:101830003119000897180008802B99D15C4B1B6F59
:1018400003F00703013B032B53D8DFE803F0504DAF
:101850008890B3F5086F75D022D8B3F5C06F67D004
:101860000FD8B3F5A06F00F08680B3F5B06F46D007
:10187000B3F5806F7FF47CAF002001A9FFF730FB48
:1018800041E0B3F5E06F7BD0B3F5F06F55D0B3F521
:10189000D06F7FF46DAF002001A9FFF7A3FC32E009
:1018A000B3F5286F7BD00ED8B3F5186F6DD0B3F5B4
:1018B000206F6FD0B3F5106F7FF45AAF002001A9ED
:1018C000FFF7C2FC1FE0B3F5306F6DD0FFF450AFEF
:1018D000B3F5386F2CD0B3F5406F7FF449AF0020DB
:1018E00001A9FFF737FB0EE0052301930BE002236C
:1018F000FBE740F2CA412F4803F0AAFA03E00020B8
:1019000001A9FFF75FFB019805B05DF804FB4FF0FC
:10191000E02302901B695B0705D5FEF74FFE0C2301
:101920000393039BE1E703A902A8FFF7D9FBF8E7BC
:10193000002001A9FFF7D4FBE5E7002001A9FFF78C
:1019400003FDE0E71A4BD3F8003103F00303022B49
:1019500007D0032B09D0012B0BD1FEF745FE032343
:10196000C3E7FEF79DFE0923BFE703F069FA0823EA
:10197000BBE70123B9E7002001A9FFF777FBC2E726
:10198000002001A9FFF792FCBDE7002001A9FFF7A5
:10199000B1FCB8E7002001A9FFF7C6FBB3E70020C0
:1019A00001A9FFF7F9FBAEE701A9FFF73BFBAAE7A7
:1019B000008000501A5900084FF48032074B084944
:1019C000586E03F580535A664B6A23F001034B624D
:1019D000C3035CBF034B5A66704700BF00800050D2
:1019E00000C0075000A00050F8B5036804460F2B54
:1019F00004D940F67731804803F02AFA63680F2B48
:101A000004D940F67A317C4803F022FAA3680F2B00
:101A100004D940F67D31784803F01AFA237B0F2B66
:101A200004D94FF43861744803F012FA637B0F2B2A
:101A300004D940F68331704803F00AFAA37B3F2BA8
:101A400004D940F686316C4803F002FAE37B3F2B61
:101A500004D940F68931684803F0FAF92369032B69
:101A600004D940F68C31644803F0F2F96369032B22
:101A700004D940F68F31604803F0EAF9E369032B9B
:101A800004D940F692315C4803F0E2F98020FFF778
:101A90005FFE032800F08A804FF48012574B584DA8
:101AA0005A6645F60E034FF0A062C5F88030554BDC
:101AB0009A624FF4803203F580539A62AB6DDA0379
:101AC000FCD4AE6D16F08046FBD1D4E900231B0593
:101AD00043EA0263E27B4C481343227B4B4F43EAC9
:101AE0000243627B43EA0233A27B43EA82132B6107
:101AF000AA69D4E904131B0643EA816302F0004299
:101B00001343A27E4FF440611343227E43EA024313
:101B1000627E43EA0223AB614FF4006203F0DAF91C
:101B20002B6AE17EE26923F00F0343EA8103002A76
:101B30003DD12B6294F8243094F82010AA6ADB007F
:101B400043EA41133A40134394F82120304943EAD1
:101B5000021343F480332A4AAB62936D31EA0303E4
:101B6000FBD14FF08071274881621369A56823F487
:101B7000700343EA055313614FF00043836194F807
:101B800022300BB9234B996294F823303BB94FF4C0
:101B90008032204B9A621A4A936D5B00FCD494F811
:101BA00025301BB1164B1C4AC3F88020F8BD1343E7
:101BB00043F00803022A2B6208D12E614FF4085229
:101BC0004FF47F411548AE6103F084F90C4994F855
:101BD00022308A6A94F820001B063A4043EA4013F8
:101BE000134394F8242043EAC20394F8232043EAE1
:101BF00002438B62D3E700BF1A59000800900050DF
:101C00000040005A0050005A3840005AC7FFFEFEFC
:101C1000030001000060005AF1A7FFFF3440005AA2
:101C2000014B93F9000070475814002010B5436829
:101C30000446072B04D940F6D3512A4803F008F98B
:101C4000A368032B04D940F6D551264803F000F9C8
:101C50002378032B04D940F6D751224803F0F8F833
:101C600094F90130002B04DA40F6D9511D4803F0F5
:101C7000EFF84FF400011C4A637851664FF4D151DC
:101C8000022002F5B832516218494F2B48604FF0DC
:101C9000010028BF4F2301F5805148601169C90335
:101CA000FCD4217843EA01235361D4E901131B01D9
:101CB00043EA0123617B0B43217B43EA41039360A9
:101CC000E37BA17B1B0143EA4113617C0B43217C35
:101CD00043EA41035360A37C13B16FF4D1535362C1
:101CE00010BD00BF1A5900080090005000100250AB
:101CF000014B1880704700BF56140020014B18801C
:101D0000704700BF5414002010B5B0F5207F65D097
:101D10000ED8B0F5007F4FD003D800B3B0F5C07F28
:101D20001DD040F21631BDE81040344803F090B8A1
:101D3000B0F5607FF5D14C1E012C06D9042904D0E2
:101D400040F2F7212D4803F083F82D4AD2F8803075
:101D500023F0300343EA0413C2F8803010BD4C1E58
:101D6000012C0AD9102903D8264BCB40DB0704D419
:101D700040F2C921214803F06BF803F0BAF803F0F0
:101D8000C6F84FF48031204B1D4A1967136F23F4B6
:101D9000704343EA04331367FEF710FC0446FFF771
:101DA0000FF8C0F10201204603F0ABF800F03EF856
:101DB000BDE81040FFF7BCBC4C1E1F2C04D940F2FC
:101DC0000A310E4803F044F80D4AD2F8903023F05F
:101DD000F85343EA0463C2F89030BFE74C1E012C6D
:101DE00004D94FF44471054803F032F8044A136FE4
:101DF00023F4806343EA84231367AFE71A5900088A
:101E000000800050100101000090005008B5012131
:101E1000022000F071F903F06CF803F078F84FF449
:101E20008032014B1A6708BD0090005008B54FF48E
:101E3000C070FFF743FBBDE808400449884294BFE7
:101E4000012102214FF42070FFF75EBF80F0FA02FB
:101E50002DE9F0410546FEF7BFFF431E033304465C
:101E600004D940F6CF113B4802F0F2FF4FF4C022F4
:101E7000394B5A6603F598335A68012A04D1374919
:101E80004A605A689207FCD48020FFF761FC05285D
:101E900007D103F02EF803F03AF84FF480322E4BBE
:101EA0001A672F4B24F040749D4239D02D4B9D4230
:101EB00039D0FEF75DFB8542064603D9012128464D
:101EC00000F06EF9284FFB6813F0060FFBD1D7F82E
:101ED0000880BC60BB68634013F4F81F26D1284615
:101EE000FEF74CFB8020FFF733FC052814D1FEF7EA
:101EF00065FBA842044604D940F62821154802F0A3
:101F0000A7FFFEF75DFFC0F10201204602F0F9FFD6
:101F1000FFF78CFFFFF70CFCAE4213D2BDE8F08157
:101F200044F00074C5E744F08074C2E740F617211E
:101F3000084802F08DFF8020C7F80880FFF708FCF2
:101F4000052805D0BDE8F0410121002000F028B9A6
:101F50003546CCE71A5900080090005000E00150C7
:101F600040420F0080841E000000015070B54E4BAF
:101F70000546984273D041D8A3F5B703A3F558633B
:101F8000984265D033D8494B494E984251D017D822
:101F9000002877D041F2C911464802F059FF40F6B7
:101FA0007371444802F054FF4FF40022404B5A66CC
:101FB0003E4B9D4276D000243F4A954236D05DE0AC
:101FC0003D4B984227D03D4B9842E3D13C4BD3F850
:101FD000A040621E033224F040744CD940F6737165
:101FE000344802F035FF4FF400237366E4E7354BC5
:101FF0009842CFD1324BD3F8BC402CE0324B9842C0
:1020000031D0324B984232D0314B9842C2D12C4B16
:10201000D3F8C8401FE02A4BD3F8A040621E033219
:1020200024F04074DAD84FF40023736644F08074CF
:1020300024E0234BD3F8A040621E033224F0407406
:102040002AD84FF400237366234643F0007415E04A
:102050001B4BD3F8B840621E154E0332BBE7184B3A
:10206000D3F8C040F7E7164BD3F8CC40F3E7144B56
:10207000D3F8D040EFE74FF4002373664FF0B4423B
:10208000946070BD40F673710A4802F0E1FE4FF4AF
:1020900000232C467366F1E740F67371054802F0A1
:1020A000D7FECEE70023D0E7C0EA210140420F006F
:1020B000009000501A59000880841E0000093D005D
:1020C0000080E00F0024F4000048E801005A62029A
:1020D00080BA8C01024A536B0342FCD1704700BFA7
:1020E00000400950034A0179D36E23F030030B43BB
:1020F000D366704700400050F8B50446244BD3F82F
:102100008420D006FBD4D3F88430C3F381139C42DF
:102110003CD0FEF739FA012C05460BD11D4B9842F5
:1021200004D940F2B7711C4802F092FE0121284602
:1021300002F0E7FE02F08DFE4FF00072174B0746EB
:102140005A66204602F0FFFE4FF48063104E621E76
:1021500093403367736E9A0103D4D6F884309B069C
:102160000AD5384602F079FE022C0FD12846BDE888
:10217000F840002102F0C5BED6F884309906E9D5B2
:1021800040F2C571044802F063FEE3E7F8BD00BF0A
:1021900000400050005A620271590008006000506F
:1021A00010B50C4608B9FEF7EFF9074B21461B782E
:1021B0003BB1064B984204D80120BDE81040FFF720
:1021C0009BBF0220F9E700BFC8130020005A62023B
:1021D00038B54FF00042244B244C5A664AF6CD33B2
:1021E000656C014605F00105236428BB0120FFF75B
:1021F00071FF6368DB0715D51D4B586008461D4B02
:10220000226BD2070CD4984208D1072415B1174B82
:10221000194A1A6402F098FE204638BD0130EFE7F3
:102220009842F2D00024F1E70132236B13F0080347
:1022300005D08A42F8D1E8E700220E49F5E78A4244
:10224000E3D020210A4A91620121A2F58052516017
:102250000649084A886A800603D49342D5D00133E0
:10226000F8E79342DDE700BF0090005000400950BE
:102270000060095040420F003254FFFF38B54FF064
:102280000042164B01465A664AF6CD33144C154AA5
:10229000656C236443780B205B0043F00103D36338
:1022A000FFF718FF63688A7823F4F87343EA021390
:1022B0006360CA784B7943EA0223A3600A798B7979
:1022C00043EA022323610878FFF782FFEB0744BF4C
:1022D000054B236402F038FE012038BD0090005009
:1022E00000400950004000503254FFFF70B50F28E5
:1022F000044605D940F65261124802F0A9FD0F24A8
:102300004FF00042104B11495D6E03F580535A6641
:102310004AF6CD334E6C80200B64FFF7DBFE0B6A70
:1023200023F00F0323430B62F30744BF084B0B64F6
:10233000002DA2BF4FF00042064B5A6602F004FE89
:1023400070BD00BF71590008008000500040095066
:102350003254FFFF00A0005038B5032804460D4654
:1023600005D8094B33F81030CB40DB0704D440F2DA
:102370002D41064802F06CFD302301225C43044BE2
:10238000AA401A5138BD00BF205A0008B6580008AC
:1023900040D0035038B5032804460D4605D8094BF4
:1023A00033F81030CB40DB0704D440F2FE3106484E
:1023B00002F04EFD302301225C43044BAA401A5127
:1023C00038BD00BF205A0008B658000840E003504E
:1023D0002DE9F041032804460D461746984605D8D6
:1023E0001D4B33F81030CB40DB0704D44FF4B071F1
:1023F0001A4802F02DFD37B129462046B8F1000FEA
:1024000020D0FFF7A9FF0F21072D04EB440688BF5A
:10241000A5F108034FEA0616114895BFAB009B00D3
:1024200004360C3607FA03F29940304402F08DFD71
:102430007FB929462046B8F1000F06D0BDE8F0412B
:10244000FFF78ABFFFF7A6FFDDE7BDE8F041FFF722
:10245000A1BFBDE8F08100BF205A0008C85900089C
:1024600030C00350F8B506460F461546002A6AD01C
:1024700003F00304836823F44073836002F0E9FCF3
:10248000B26882EA042303F440735340B36002F05D
:10249000E4FC37B9B6F1B64F0DD12E20FFF70EF898
:1024A0000746B3689A0717D5012C1BD0022C27D0FA
:1024B00064B9264B17E0264B9E4201D12F20EDE751
:1024C00040F22F11234802F0C3FCB3684FF4B271FD
:1024D000204802F0BDFC08E0012C13D0022CE7D10B
:1024E0001D4B00E01D4B9F42F0D91D4B1B5D6B4304
:1024F0000AD140F27511BDE8F840164802F0A8BCB8
:10250000184BF0E7184BEEE7A3EBC504013C3C4445
:10251000B4FBF3F4013C0CD540F27B110D4802F002
:1025200097FC4FF4BE710B4802F092FCB368B461A3
:10253000F8BDB4F5007FF4D2B3689B07F7D5002C43
:1025400008BF0124F3E740F21511D4E780841E0090
:1025500000800650285A0008002D3101404B4C00E5
:102560005F5A0008809FD5004054890038B5B0F10B
:10257000B64F04460D4607D0084B984204D040F2AF
:102580009511074802F064FC043425B104F5805429
:102590000123236038BD04F50054F9E7008006509C
:1025A000285A000838B5B0F1B64F04460D4607D09A
:1025B000124B984204D04FF4D571114802F048FCF8
:1025C0000023104A236404F50053DA636A7804F1A7
:1025D00008037AB903F5805302221A602046D5E930
:1025E00001122B7BFFF73EFF20462978BDE83840DB
:1025F000FFF7BCBF03F50053EEE700BF00800650B5
:10260000285A0008FFFF1F0070B5B0F1B64F0AD07E
:10261000874B98421DD0874840F2012102F018FCF8
:102620006FF0030070BD844B9968C26B12F4C06FE9
:1026300015D091050FD5FD225A7009221A7000227B
:10264000026493F90110012900D15A7093F9010035
:10265000E8E77A4BE8E75605EFD5FE22ECE71C7871
:10266000082C00F2E180DFE814F009001F004500AB
:10267000530070007E009C00A700D6004C880A889A
:10268000E5060AD5120A02F0060242F0F002012124
:1026900019704263C1600120C4E702F0FE02A10785
:1026A00048BF42F00102F2E7160608D5802100F586
:1026B0000052D1634FF608721A80022318E05506C3
:1026C000E9D5402400F50052D4634A88D40604D5E5
:1026D00002221A700B784363DDE796076AD507225A
:1026E0001A701B7901EBC3031B89012BD3D108237B
:1026F000C360D0E71506D9D45406CCD5402400F5E4
:102700000052D4634A88920754D503221A708CE78A
:102710004C880A88E60643BF120A02F0060242F01D
:10272000F00202F0FE02650709D51C7942F00102B1
:1027300001EBC4010989012904BF0821C1600421FA
:1027400019700123C3604263A5E71406AED4520694
:10275000A1D5402400F50052D4634A88560729D5F4
:1027600007221A7097E71A795D8801EBC20426895F
:10277000AE420FD800240132D2B21A715C804C886C
:102780006507C2D4E40702D4012A7FF64EAF0822BF
:102790001A7092E76268691C5980525D4263062292
:1027A000DFE7160682D455067FF575AF402400F5A5
:1027B0000052D4630522A9E794067FF56CAF456A01
:1027C0001F4C46691A793440B4F5003F04BF466A8D
:1027D0004FF4005601EBC20100F500540A8908BF0E
:1027E000E6632026E6635C88A24281BF4968661CD6
:1027F0005E800D5559888A42C9D90424012AC460D3
:1028000004D0013A914201D10822C2601A78092A03
:102810003FF415AF3FE7D2057FF53DAF4FF4807130
:1028200000F50052D16308E74FF609321A8006E737
:1028300000800650285A0008001200200C120020C8
:102840002000020038B5B0F1B64F04460D4607D15E
:1028500021B940F26A31254802F0FAFA244B13E01C
:10286000244B98420DD040F26931204802F0F0FA32
:1028700025B940F26A311D4802F0EAFA6FF0030010
:1028800038BD00292AD01C4B2269D00744BF202222
:10289000E2606A88910702D529890029EED05207A3
:1028A00002D52A8A002AE9D04FF480721A600022E9
:1028B0009D601A71C023E3606369DB0514D4202294
:1028C00004F50053DA630D4A2046DA63236C43F4BF
:1028D000FC632364BDE83840FFF796BE40F26A31DE
:1028E000024802F0B5FACEE7636AE5E7285A000825
:1028F00000120020008006500C120020FFFF1F0075
:1029000010B5162000F088FC0024FF22064B21465B
:102910005C6520209A625C60FEF7A8FD2146BDE858
:1029200010402120FEF7A2BD0000045038B5072852
:1029300004460D4603DD7721084802F089FA1F2C72
:1029400003D99121064802F083FA064A064B002D6E
:1029500008BF13460122A2401A6038BD635A00081E
:10296000BB5A0008401004504020045010B50446E3
:1029700018B991211F4802F06BFA23781B0613F057
:10298000604F03D092211B4802F062FAE3780F2BCC
:1029900003D9A321174802F05BFA01212020FEF79A
:1029A00065FD01212120FEF761FD0122124B162059
:1029B0005A60227812069A606178A27842EA01424F
:1029C0009A61FF229A6200229A631A644FF00042D1
:1029D0005A654FF0FF3203F500531A6500F054FCBE
:1029E0001620E17800F05EFCBDE81040162000F0F3
:1029F00031BC00BF635A0008000004502DE9F041CB
:102A00000126C3B2072805460C46174606FA03F608
:102A100003DDEC21384802F01BFA1CB9ED213648E1
:102A200002F016FA236823F47C1323F00F031BB182
:102A3000F021314802F00CFAA37A1B0413F47C0F46
:102A400004D040F209112C4802F002FAE37A1B0587
:102A500013F07E6F04D040F20B11274802F0F8F912
:102A6000237B5B0513F0FE5F04D040F20D1122487A
:102A700002F0EEF9214BDFF88C801E65AB00226876
:102A800003F1A04303F588235A60302202FB058539
:102A9000637B27F003072B66E37AA27A1B0543EAE0
:102AA0000243227B43EA4253EB652F6702F0D8F9D9
:102AB000134B5E65237A23B1D8F840303343C8F80E
:102AC0004030637A23B1D8F838303343C8F838300F
:102AD0002279A37943EA0243084A93616179E37951
:102AE00043EA014306498B61064B56639E64BDE889
:102AF000F04102F0BBB900BF635A00080020045047
:102B0000001004500000045010B50124C3B207287F
:102B100004FA03F404DD40F29711074802F098F933
:102B200002F09EF9054B5A6D22EA04025A659C6236
:102B3000BDE8104002F09AB9635A00080000045042
:102B400010B50124C3B2072804FA03F404DD40F2EF
:102B5000B5110A4802F07CF902F082F9084BDA6AF2
:102B6000224208D15B6B9C430CBF0124002402F07D
:102B70007DF9204610BD0024F9E700BF635A000824
:102B800000000450F8B507460C461D4616464AB9E3
:102B90004FF4A171314802F05BF924B1402D09D105
:102BA000062328E021B94FF42070FEF787FC044685
:102BB000402D42D0402D09D87DB1202D17D040F2B4
:102BC0008911BDE8F840254802F042B9602DF6D1E0
:102BD000B6EB940F3CD804230DE0B6EB141F04D9D8
:102BE0004FF4BA711D4802F033F9102303E0B6EB3D
:102BF000D40F1CD808235E43730803EB4413B3FBC4
:102C0000F6F3174E203BB6EBC30F4FEAC30404D2D2
:102C10004FF4D071114802F01BF9BB68344023F027
:102C20006003BB60BB681D43BD60FC61F8BD40F242
:102C300079110A4802F00CF9DCE70623B4FBF3F340
:102C4000B342ADD24FF4BF71044802F001F9A7E7D7
:102C500040F28311014802F0FBF8BCE7125B000868
:102C6000F8FF7F0038B50C4B044698420D4604D05F
:102C70004FF43371094802F0EBF8012204F5805358
:102C80005A60EB43934003F00A036361656115B931
:102C900004F50054626038BD00C00550125B0008A6
:102CA00010B5124B0446984204D040F242411048FD
:102CB00002F0CEF8012104F58053596040F6AA6372
:102CC00041F20502636100230A48A360E365E26004
:102CD00004F500522361E361E36490640348A36553
:102CE000844204BF23656365516010BD00C0055078
:102CF000125B0008FFFF010070B5304B044698429C
:102D00000D4604D040F2FD212D4802F0A1F82046E6
:102D1000FFF7C6FF012304F580567360AB7C1BB13F
:102D2000A36843F08043A360EB7C5BB1234B9C42E0
:102D300002BF2A7DA3F51033C3F8D421E36D43F01D
:102D40008003E3652A8A6B7B20461343EA89134399
:102D5000E3602B7BD5E90112FFF714FF6B7D1BB1FC
:102D6000A36843F48033A360AB7D1BB1A36843F435
:102D70000043A360EB7D2A7E1B07120502F4E002EC
:102D800003F0E0431343A3656B7E9A1E012A4FF0C4
:102D9000020209D80B49032BC1F8982709D1042353
:102DA000F3652B78636170BD0749012BC1F8982743
:102DB000F4E7042204F50053DA65F2E700C0055099
:102DC000125B000800D0035000E00350034B5A6828
:102DD000D20702D5DA69002AF9D1704700800A507B
:102DE000054B9A689107FCD45A689207F9D4DA69BE
:102DF000002AF6D1704700BF00800A5008B5FFF7DF
:102E0000E5FF0222014B1A6108BD00BF00800A5095
:102E100008B5FFF7E5FF0122024B03F580514A6038
:102E20001A6108BD00800A5008B5044B5968012991
:102E300003D1FFF7E3FF024B596008BD00800A5041
:102E400000A00A5010B5064CFFF7CAFF6368012BBB
:102E500003D1FFF7E9FFFFF7C3FF0378E36010BD7D
:102E600000800A50A8B94A680B78B2B94A7843EA98
:102E700042038A6812B1127843EA82138A7843EADD
:102E80008203CA6812B1127843EA4223054A936466
:102E900070477E21044801F0DBBF127843EAC20389
:102EA000E4E700BF00800A506B5B000810B9044BD8
:102EB0005964704740F21111024801F0C9BF00BFC8
:102EC00000900A506B5B000810B9044B59647047BE
:102ED00040F24D11024801F0BBBF00BF00A00A50F4
:102EE0006B5B000810B9044B1964704740F28911FC
:102EF000024801F0ADBF00BF00A00A506B5B0008A4
:102F000008B510B9044B186C08BD04484FF4E271C1
:102F100001F09EFF0020F7E700800A506B5B00087D
:102F200008B520B949B101290AD0002008BD40F2F6
:102F30007321054801F08CFFF7E7044BD86CF5E7E7
:102F4000024B186DF2E700BF6B5B000800800A506F
:102F500018B939B1012908D0704740F2113104483D
:102F600001F076BF034BDA647047024B1A65704775
:102F70006B5B000800800A5070B50D46E8B103682D
:102F800013F4E07F03F03F06C3F3821210D0012A4E
:102F900013D10B4C9B0603D591210A4801F058FF31
:102FA00045B104F5805401230020B340236070BD77
:102FB000054CEFE704F50054F5E70E20F7E700BFF6
:102FC00068800050BB5A00086480005030B58BB058
:102FD0006C46754D0FCD0FC42B68684623604FF0CB
:102FE0007E636C4693F89C30704DFF2B18BF8DF8B4
:102FF0000130FEF71BFE3220FEF77AFE0FCD0FC424
:103000000FCD0FC495E8030084E80300684BD3F8A4
:103010004C21110340F1B380A3F5FE431C884FF609
:10302000FF739C4208BF6B248DF81940FEF7F8FD32
:10303000044484F308045F488DF81840FDF7DAFA79
:103040006846FEF7D1FC3220FEF758FE5A48FEF7DC
:10305000FFFE5A4C5A48FEF789FF01213620FEF741
:1030600005FAFEF7D3FE236F002023F0070343F099
:1030700003032367236F23F4744343F480632367BC
:1030800001F04AFF4F4BD3F8FC20D2017BD4D4F897
:103090008030C4F88030494CD4F8203123F0070345
:1030A00043F00203C4F82031D4F8283123F0070399
:1030B00043F00203C4F82831D4F8803123F003032D
:1030C00043F00103C4F88031D4F8903223F00303B5
:1030D00043F00103C4F89032D4F8403123F00303E5
:1030E00043F00203C4F84031D4F8603123F0030305
:1030F00043F00203C4F86031D4F8403223F00303F4
:1031000043F00203C4F84032D4F8003223F007033E
:1031100043F00203C4F80032D4F8083223F0070366
:1031200043F00203C4F80832D4F8503223F003030A
:1031300043F00203C4F85032D4F8703223F0030392
:1031400043F00103C4F87032D4F8203223F00703AF
:1031500043F00103C4F82032FEF72EFC4FF0E022CA
:103160000020136963F004031361D4F8603223F084
:10317000070343F00103C4F860320BB030BDD3F84D
:103180005041E4B250E7D3F8FC2022F08072C3F83B
:10319000FC20D4F88020C4F88020D3F8FC2042F032
:1031A0008072C3F8FC2076E7D05B0008E45B00087F
:1031B0000080E00FC017530200B4C4040080005028
:1031C000C0EA210100ED00E007B5094B18689A88B4
:1031D0009B7900906846ADF804208DF80630FFF723
:1031E0004DF80920FFF782F8002003B05DF804FBDA
:1031F0000C5C000813B50024064A6846536F43F080
:103200000103536700948DF80440FEF76BFF2046DE
:1032100002B010BD0040005010B54C2804460DD837
:1032200001220A49630904F01F04A240203341F837
:103230002320BFF34F8FBFF36F8F10BD40F20911F2
:10324000034801F005FE002CF7DBE9E700E100E0B0
:10325000305C000810B54C28044608D801236109E9
:10326000074A04F01F04A34042F8213010BD4FF478
:103270008A71044801F0ECFD002CF7DBEEE700BF9B
:1032800000E100E0305C0008002808DB012243096F
:10329000034900F01F008240603341F8232070474B
:1032A00000E100E038B500F110035C2B04460D4648
:1032B00004D94FF4E1710D4801F0CAFD1E2D04D967
:1032C00040F2C311094801F0C3FD002CACBF04F16A
:1032D0006044074B4FEA0515EDB2ABBF04F56144FE
:1032E00004F00F0484F800531D5538BD305C00080D
:1032F00014ED00E010B5044601F0ABFD024B1C607C
:1033000001F0ABFD002010BD1812002010B501F037
:10331000A0FD034B1C6801F0A0FD204610BD00BFBE
:103320001812002010B50020144601F09DFE02285E
:1033300004D018B1C321024801F08AFD204610BD17
:10334000B15C000838B53022037A0446534303F1D8
:10335000A04303F58023DD6ED0E9032313449D428F
:1033600001D8AA4204D94FF44171054801F070FD1B
:10337000D4E9030303449D4218BF284638BD00BF6B
:10338000275D000830B587B0144605461046FFF7A4
:10339000D9FF6369024683423CBFD4E903315B181D
:1033A0001B1AABB11249049403910021CDE90131FC
:1033B000012300932846D4E9001301F071FD20B1E8
:1033C0004FF437710B4801F043FD002007B030BDCA
:1033D0000122627694F82D20002AF6D084F8353048
:1033E0001321E369204698472046636A9847ECE733
:1033F00085330008275D000870B504460568FFF7AF
:1034000085FF844202D10020FFF774FF95F9360052
:10341000FFF73AFF95F93600FFF7FEFE287AFDF731
:103420002BFC20B14FF4F371104801F011FD287A04
:10343000FDF788FB20B14FF4F5710C4801F008FD51
:10344000FDF75EFB38B10A4B984204D04FF4F77198
:10345000064801F0FDFC00232846C4E90033C4E916
:103460000433A360AB6ABDE870401847275D0008CD
:10347000058000F02DE9F04788B004460F46164657
:10348000984601F0EDFC8146002E00F0AD80237ED1
:1034900003F0FF02002B00F0E0802046FFF752FF10
:1034A00063698246984206D1637E23B940F28B312C
:1034B0006B4801F0CDFC6569AA459DBFD4E9033294
:1034C0009B185D1BAAEB0505B54228BF354601F0E8
:1034D000C7FC94F82D308246002B40F096802A4697
:1034E0003846616901F05BFF63692E462B446361D6
:1034F0002CE06069037803F0FD01112940F082801F
:10350000216B884205D1A3F111014B424B4184F854
:103510003430013E6369216B01328B4203F10103B8
:1035200008BF236363619542E3D1D4E90323216B90
:103530001344994208BF2263216B8A4201D88B420F
:1035400004D84FF47071464801F082FCD4E903239B
:1035500061691344994208BF626161698A4201D876
:103560008B4204D84FF474713D4801F071FC002384
:10357000207A6376FDF740FB20B140F21D313848D8
:1035800001F066FC2046FFF7DDFE636983423FD110
:103590000023E568237694F82D30656103B1256337
:1035A0002046636A98472F4B0494039300230293A9
:1035B00023692A4601930123009363682168207AD6
:1035C00001F06EFC20B140F23931254801F040FC99
:1035D000207AFDF731FB20B140F25D31204801F047
:1035E00037FC504601F042FC4846C8F8006001F044
:1035F0003DFCD8F80030002B0CBF1B20002008B089
:10360000BDE8F08707F8013B84E72E4600228AE7F1
:103610000123207A23760DF11E01FDF775FB20B101
:103620004FF453710E4801F013FC9DF81E30207AC0
:10363000002BCDD00DF11F01FDF73EFB20B140F274
:103640005231074801F004FC9DF81F10207A002930
:10365000BED12246FFF796FEBAE71646C4E700BF82
:10366000275D0008853300082DE9F84304460D4620
:1036700090F82C80DFF8AC908E18AE4228D094F8E9
:103680002D3083B101F0ECFB237E07461BBB226B80
:1036900063699A4204D040F20521484601F0D8FB04
:1036A000384601F0E3FB94F83430002BE5D0B8F154
:1036B000000F06D02B780A2B03D10D212046E36999
:1036C00098472046E36915F8011B98470028D4D095
:1036D0000020BDE8F8832046FFF734FEE16801389A
:1036E000884238BF2069D4F830C03CBF00F1FF30B9
:1036F000401803469C450BD013F80129112A01D02C
:10370000132A07D1A2F111035A425A4184F83420F6
:103710002063C5E7994282BF236903F1FF335B1839
:10372000E8E700BF275D0008F0B587B00C46064605
:1037300015460021382220461F4601F025FE95E857
:10374000030000232A692376EB6884E80300C4E9B8
:1037500004232A7DE36084F82C20AA7D23630123BF
:1037600084F8343084F835300C9B84F82D202362A3
:103770000D9BE76163620E9BA3622B7A84F836305F
:103780001C4B346073601C4BB3601C4B33611C4B8F
:1037900073611C4BF360FDF7FBF930B11A4B984293
:1037A00003D01024204607B0F0BD002104F108002A
:1037B000FDF776F90028F4D1144B0494CDE9020307
:1037C00023690193012300936368E2682168207AEA
:1037D00001F066FB04460028E3D195F90800FFF7E5
:1037E00053FD95F90800FFF735FD3046FFF782FDE0
:1037F000D8E700BF6936000875340008EF500008AC
:10380000F5500008F9330008038000F08533000804
:103810002DE9F04186B01C46564B01270293564BCA
:103820000C9D01930023904600930A46CDE903774F
:103830002946524BFFF778FF0646002840F091805A
:1038400023683946AB6363683A20EB63637A85F893
:103850004130237A85F84030E37A85F84330A37A03
:1038600085F84230637B85F84530237B85F844300A
:10387000E37B85F84730A37B85F84630FDF7F6FDFE
:103880003B460422617A207AFEF7A2FD3B460222E3
:10389000E17AA07AFEF79CFD39466068FDF7E6FD07
:1038A00088F8006041462068FFF726FA1422637CFE
:1038B0005B0103F1A04303F57033C3F89827617AE5
:1038C000227A42EA0142C3F8B027E17AA27A42EAB8
:1038D0000142C3F8A82785F8486098F81930032BEF
:1038E00045D8DFE803F03542021C022385F8483052
:1038F00000230422E17BA07BFEF76AFD022741F250
:103900009871627C1E4B03EB42104750E07BA17B19
:10391000BD3241EA004103EB4213596018E0012730
:1039200085F8483002220023617B207BFEF750FDA2
:10393000617B637C227BBD3342EA014210495B011B
:10394000CA500422236803F58053DA65002FCFD1D3
:10395000AA6B0521D36C206843F00403D364FFF7FE
:1039600081F9304606B0BDE8F0810027D8E723266C
:10397000F7E700BF07510008FB5000087F5100081F
:1039800000C003500346054A0549106803448B42B2
:103990008CBF4FF0FF301360704700BFF41300205E
:1039A0000000012030B50E4C416123688BB92060C6
:1039B00083600DE0891A9A681D4641616AB1134619
:1039C0005A698A42F6D935B1A860521A83605A61A1
:1039D00030BD0025F4E72060F7E798608260F7E7E4
:1039E0002412002038B500F007FA0025084B094CD6
:1039F0001A682368C31A2AB123B15169994203D3C3
:103A0000C91A5161206038BD55615B1A9268F2E7AE
:103A1000241200202012002038B5134D2B685B695A
:103A200093B1124A022014681C4401F011FC204694
:103A300000F0EAF900230E492A680B70D08880074D
:103A400009D501230B7038BD022001F001FC0220D2
:103A500000F028FAEEE79268002AF4D05069034497
:103A6000012BEBD9EFE700BF241200202012002029
:103A7000CA13002070B516469DF81420C0E903361D
:103A80000271049ABDF818300260002204460D4607
:103A90008260C380EEB900F0AFF92844A0619DB107
:103AA0002E4601F0D6F90546FFF79CFF3146204629
:103AB000FFF778FF104B1B68A34201D1FFF7ACFF63
:103AC000284601F0CAF902E0E36865617BB900208D
:103AD00070BD00F091F93044A061002DE0D1E368A1
:103AE0006561002BDDD0204621689847D9E7204644
:103AF00021689847EBE700BF2412002000220C4900
:103B00000B687BB183420AD183687AB19360836882
:103B10001BB15A6941690A445A61002070471A462C
:103B20009B68EEE70028EFD0022070470B60EEE7BD
:103B30002412002070B501F093F9144E0546347834
:103B4000FCB9134B1C60134B1C60134B1C8000F022
:103B50001FF9012001F07CFB00F0ACF90F4B02468D
:103B6000186020B9284601F081F9232070BD234652
:103B700040F2E7310A4800F0D5F90A4B18600123FA
:103B80003370284601F072F90020EFE7CB130020D4
:103B9000241200202012002074130020281200207C
:103BA00018FCFFFF1C12002038B50C460546A8B1D2
:103BB000A1B100230B7001F053F90121084B1B68E0
:103BC00033B901F053F9002038BD9D4204D1217072
:103BD0002278002AF9D0F4E79B68F1E72220F3E786
:103BE0002412002038B50021044640F2E730054B8E
:103BF0004FF47A721D680023E5FB040100F092F98E
:103C000038BD00BF2812002000B58DB001238DF80B
:103C10000F30FFF7E7FF00230146CDE90033074AE5
:103C20000DF10F0304A801F0EBFA18B99DF80F305D
:103C3000002BFBD10DB05DF804FB00BFFB51000869
:103C40002DE9F047C20704460BD54D4A13880133CE
:103C50009BB21380FFF7C6FE4A4B1B680BB1FFF700
:103C6000DBFEA30740F18A8001F0FAF84FF000096B
:103C700005464E46FFF7B6FEC846424F3C680CB1BB
:103C800063698BB10022404B012E1A7003D119F0E9
:103C9000020F18BF1E70002C6CD0FFF7BDFE284627
:103CA000BDE8F04701F0E2B823465A693AB91A79FB
:103CB0002179914288BF1C469B68002BF5D128468C
:103CC00001F0D4F82569DDB100F096F8A269A0EB07
:103CD00002094FEAE9734D4578EB030311DA2369D2
:103CE0001344A361E368B4F80690013613B120468B
:103CF0002168984701F0B4F80546FFF773FEBDE769
:103D0000A94601F0ADF882462046FFF7F7FE50467F
:103D100001F0ACF82369002BE4D0B5EB09054FEABC
:103D2000E97363EB4303002B04DA40F23451174884
:103D300001F08EF8A38B33B1E28B13449BB2B3F541
:103D40007A7F0FD2E38301F08BF881462946204623
:103D5000FFF728FEA369226948461344A36101F0D6
:103D600085F8BFE7A3F57A73E383A369013D013BBF
:103D7000A361E8E7022000F07FF890E7BDE8F08754
:103D80007413002024120020C9130020935D000842
:103D900010B586B0002401231548ADF80830CDE9F0
:103DA00003448DF804408DF80A40059401F0E9F8C9
:103DB00001A8FFF747F8204602A98DF80840FFF751
:103DC00051F820460F21FFF77FF80F212046FFF71B
:103DD00089F8FFF71DF8FEF7F9FF064B46209C61B6
:103DE000FFF752FA4620FFF735FA06B010BD00BFC4
:103DF000145C000800800A5008B5FEF7E7FF014B8D
:103E0000986908BD00800A50F8B5044601F021F811
:103E10000746FEF7DBFF164B9D6901F015FA0646D3
:103E20000020FFF76DF8830704D4731B032B01D820
:103E3000AE420FD10021631B022B98BFEC1C084639
:103E4000B4F1FF3F2CBF2246621EFFF781F802202B
:103E500001F0FEF9384601F000F8064A137833B154
:103E600003498B6C43F001038B6400231370F8BD8E
:103E700000800A5059140020830700F0010109D581
:103E80000122064B41F002011A70054A936C23F09F
:103E9000010393640020FFF717B800BF59140020F6
:103EA00000800A50830742BF0222014B1A64704708
:103EB00000900A5007B5044B01A9187901F05CF88D
:103EC000019803B05DF804FB245C000810B50446BB
:103ED000FCF774FB4FF47A729042B0FBF2F105D21A
:103EE0003621BDE810400C4800F0B2BF0B4BB3FBCD
:103EF000F1F30B49884201D93C21F2E702FB04F0BF
:103F0000B0FBF3F0022806D9BDE810400323B0FB54
:103F1000F3F0FCF72DB910BDFE5D000840420F0024
:103F2000E7CD9A3B53B94AB9002908BF00281CBF06
:103F30004FF0FF314FF0FF3000F082B9ADF1080CC7
:103F40006DE904CE00F006F8DDF804E0DDE90223B7
:103F500004B070472DE9F04F099D0C46002B4DD160
:103F60008A420F4684469646B2FA82F360D94BB134
:103F700002FA03FEC3F120029F4000FA03FC20FA7C
:103F800002F217434FEA1E461FFA8EF44FEA1C4214
:103F9000B7FBF6F106FB117701FB04F042EA07429A
:103FA000904208D91EEB020201F1FF3702D2904283
:103FB00000F231813946121A1FFA8CFCB2FBF6F07E
:103FC00006FB102200FB04F44CEA024C644508D9BD
:103FD0001EEB0C0C00F1FF3202D2644500F21E8190
:103FE000104640EA0140ACEB040C002125B12CFA4C
:103FF00003F30022C5E90032BDE8F08F8B4205D9FA
:104000000DB1C5E9000100210846F5E7B3FA83F1D7
:1040100000294DD1A342C0F0F380904280F0F0809F
:10402000064623460846002DE6D0C5E90063E3E7CF
:10403000002B40F0A3808A1A4FEA1E471FFA8EF623
:104040000121B2FBF7F407FB14204FEA1C4242EABD
:10405000004206FB04F090420FD91EEB020204F16D
:10406000FF382CBF4FF001094FF00009904203D9EF
:10407000B9F1000F00F0CC804446121A1FFA8CFCF4
:10408000B2FBF7F007FB102200FB06F64CEA024CED
:10409000664508D91EEB0C0C00F1FF3202D26645D2
:1040A00000F2B3801046ACEB060C40EA04409DE7FA
:1040B000C1F120068B4004FA01FE22FA06F720FA2D
:1040C00006FCF4408A401F434EEA0C0300FA01FE4E
:1040D0004FEA17484FEA13491FFA87FCB4FBF8F080
:1040E00008FB104449EA044400FB0CF9A1450ED931
:1040F0003C1900F1FF3A2CBF4FF0010B4FF0000BC1
:10410000A14503D9BBF1000F00F08B805046A4EB12
:1041100009041FFA83F9B4FBF8F308FB134403FB0B
:104120000CFC49EA0444A44506D93C1903F1FF38C4
:1041300001D2A4457BD8434643EA0040A4EB0C04DB
:10414000A0FB02984445CC46434602D306D1CE4557
:1041500004D20138B9EB020C68EB0703002D6CD0D8
:10416000BEEB0C0264EB030422FA01F304FA06F638
:10417000CC4000211E43C5E900643DE702FA03FE7E
:10418000C3F1200104FA03F200FA03FCCC404FEA29
:104190001E4720FA01F11FFA8EF6B4FBF7F00A432E
:1041A00007FB1044110C41EA044100FB06F48C4269
:1041B0000ED91EEB010100F1FF382CBF4FF00109B1
:1041C0004FF000098C4202D9B9F1000F2CD04046C3
:1041D000091B92B2B1FBF7F407FB141142EA01424A
:1041E00004FB06F1914207D91EEB020204F1FF38ED
:1041F00001D291421ED84446521A44EA004120E7B7
:10420000861A64EB030301200DE7F44402384AE701
:10421000023C724431E702397244CCE6F44402387D
:10422000DFE602383C4472E702387144D0E7023BD3
:104230003C4481E7023C7244DEE72946DCE600BFED
:10424000704700BF08B5064B044613B10021AFF319
:104250000080044B1B6803B19847204600F02FFFF5
:104260000000000064130020002310B504468360A2
:10427000818119464366C28108228361C0E9003307
:10428000C0E904335C3001F07FF80D4B24626362B7
:104290000C4BA3620C4BE3620C4B23630C4B9C4214
:1042A00006D003F16802944202D0D0339C4205D17B
:1042B00004F15800BDE8104001F06EB810BD00BF19
:1042C00003530008255300085D530008815300087C
:1042D0002C120020024A0349034800F0F4BF00BF3B
:1042E000F8130020F55500080814002041680C4B15
:1042F000994210B5044601D001F07CF9A168094B40
:10430000994202D0204601F075F9E168064B9942C6
:1043100004D02046BDE8104001F06CB910BD00BFCC
:104320002C12002094120020FC12002010B50B4B20
:1043300004210B4C0B4A20461A600022FFF794FF21
:1043400004F1680001220921FFF78EFF04F1D0007B
:1043500002221221BDE81040FFF786BF641300203F
:104360002C120020D5420008014801F016B800BF09
:10437000CD130020014801F011B800BFCD1300207B
:1043800010B50446FFF7F0FF236A1BB1BDE81040EB
:10439000FFF7F0BF044B2362044B1B68002BF5D1E1
:1043A000FFF7C4FFF2E700BFED42000864130020EE
:1043B0000FB407B5064904AB086853F8042B8168AD
:1043C000019300F061F903B05DF804EB04B07047AD
:1043D0000414002038B50023054D044608462B6020
:1043E00000F06BFE431C02D12B6803B1236038BD83
:1043F0006813002038B50446064D084611460022D1
:104400002A601A4600F063FE431C02D12B6803B1F8
:10441000236038BD6813002038B50446064D0846B1
:10442000114600222A601A4600F053FE431C02D1B6
:104430002B6803B1236038BD6813002038B50446EB
:10444000064D0846114600222A601A46FEF76AFF0A
:10445000431C02D12B6803B1236038BD68130020D0
:1044600070B50D4D00260D4C641BA410A64209D159
:104470000B4D00260B4C01F093F9641BA410A642CF
:1044800005D170BD55F8043B01369847EEE755F865
:10449000043B01369847F2E75C1400205C140020CE
:1044A0005C1400206014002038B50546002941D076
:1044B00051F8043C0C1F002BB8BFE41800F0D8F8EA
:1044C0001D4A136833B9636014602846BDE838405C
:1044D00000F0D4B8A34208D9206821188B4201BF4C
:1044E00019685B6809182160EDE71A465B680BB133
:1044F000A342FAD911685018A0420BD12068014498
:10450000501811608342E0D118685B68084453601A
:104510001060DAE702D90C232B60D6E72068211857
:104520008B4202BF19685B680918636008BF21608D
:104530005460CAE738BD00BF7013002070B50F4E3D
:104540000C460546316811B900F038FB3060214651
:10455000284600F033FB431C03D14FF0FF342046C4
:1045600070BDC41C24F00304A042F8D0211A2846D0
:1045700000F024FB0130F2D1EFE700BF6C13002004
:104580002DE9F041CD1C064625F0030508350C2D1C
:1045900038BF0C25002D01DBA94204D90C23336060
:1045A0000020BDE8F081314F00F062F83B681C4606
:1045B00044BB29463046FFF7C1FF431C044650D197
:1045C0003C682146002941D1002C44D02368304664
:1045D00004EB030800F0F2FA80453CD12168304634
:1045E0006D1A2946FFF7AAFF013034D023682B4407
:1045F00023603B68002B36D05A68A24229D10022A2
:104600005A600EE02268521B1DD40B2A16D961197C
:10461000A342256018BF5960636808BF39606251C2
:104620004B60304600F02AF804F10B00231D20F007
:104630000700C21AB5D01B1AA350B2E7A3426268A2
:10464000DED13A60EDE723466468B1E70C4649687D
:10465000B8E71346CEE70C233046336000F00EF87F
:104660009EE70560DDE75B60FFDE00BF70130020A2
:10467000014800F092BE00BFCC130020014800F0BA
:104680008DBE00BFCC1300202DE9F04F0D469DB02C
:1046900014469846064618B1036A0BB9FFF770FE38
:1046A0006B6ED90705D4AB899A0502D4A86D00F0CA
:1046B00074FEAB891B0701D52B699BB9294630468F
:1046C00000F026FA70B16B6EDC0704D54FF0FF30B6
:1046D0001DB0BDE8F08FAB899805F7D4A86D00F048
:1046E0005DFEF3E70023CDF80C804FF00109DFF801
:1046F000B481099320238DF8293030238DF82A3096
:1047000023469A4613F8012B0AB1252AF9D1BAEBB0
:10471000040B0BD05B4622462946304600F063FE70
:10472000013000F0A780099A5A4409929AF80030A3
:10473000002B00F09F8000234FF0FF320AF1010AA6
:10474000049307938DF853301A93CDE9052354460B
:104750000522544814F8011B00F0B2FF049AD8B99E
:10476000D10644BF20238DF85330130744BF2B23B9
:104770008DF853309AF800302A2B15D0079A5446FA
:1047800000204FF00A0C214611F8013B303B092B69
:104790004BD9B0B1079214E0A0EB0803A24609FA86
:1047A00003F313430493D2E7039B191D1B68002BEB
:1047B0000391BBBF5B4242F0020207930793B8BF6D
:1047C000049223782E2B0AD163782A2B32D1039BB3
:1047D00002341A1D1B6843EAE37303920593DFF862
:1047E000D4A003222178504600F06AFF38B1A0EB34
:1047F0000A004022049B013482401343049314F8BE
:10480000011B062228488DF8281000F059FF0028C7
:104810003FD0264B1BBB039B073323F00703083312
:104820000393099B3B4409936AE70CFB02320C4655
:104830000120A8E7002301344FF00A0C1946059324
:10484000204610F8012B303A092A03D9002BC6D094
:104850000591C4E70CFB012104460123F0E703ABFB
:104860002A4604A930460093114BAFF30080074657
:10487000781CD6D16B6ED90705D4AB899A0502D4C2
:10488000A86D00F08BFDAB895B063FF51FAF099863
:104890001EE703AB2A4604A930460093044B00F000
:1048A0000BF8E4E7615E00086B5E000800000000A2
:1048B000E7530008675E00082DE9FF470F7E914629
:1048C00080460C46782F9A460C9E01F1430207D889
:1048D000622F0AD8002F00F0DD80582F00F0C3802F
:1048E00004F1420684F842703AE0A7F16303152B05
:1048F000F6D801A151F823F0514900086549000894
:10490000E1480008E1480008E1480008E1480008E3
:1049100065490008E1480008E1480008E14800084E
:10492000E14800087B4A0008F3490008334A0008C0
:10493000E1480008E14800089D4A0008E1480008F5
:10494000F3490008E1480008E14800083B4A000834
:1049500033681A1D1B68326004F1420684F8423045
:104960000123A8E031682368081D30601E0601D5C8
:104970000D6803E05D06FBD5B1F90050002D6168BC
:1049800078DA2D200029A16084F843002DDA6D42E9
:104990005D480A231646B5FBF3F103FB1157C75DCB
:1049A00006F8017D2F460D46BB42F4D9082B0BD1EA
:1049B0002368DF0708D5236961689942DEBF302389
:1049C00006F8013C06F1FF36921B22614B4603AA12
:1049D00021464046CDF800A000F017FD01306FD110
:1049E0004FF0FF3004B0BDE8F08723F004032360EC
:1049F000CDE721683368080653F8045B02D4490602
:104A000048BFADB26F2F33603F4814BF0A2308235D
:104A1000002184F843106668002EA660BADB216886
:104A200021F004012160002DB4D1002EB2D1164630
:104A3000BCE7236843F020032360782733482368CA
:104A400084F845701F06316851F8045B02D45F0694
:104A500048BFADB23160D90744BF43F020032360A3
:104A60001DB11023D4E72848E9E7236823F0200389
:104A70002360F6E724480A23CDE733682568181D2C
:104A8000616930602E061B6801D5196002E0680676
:104A9000FBD5198000231646236197E73368002170
:104AA0001A1D32601E686268304600F009FE08B1C7
:104AB000801B606063682361002384F8433085E7CE
:104AC0002369324649464046D047013088D02368A2
:104AD0009B0714D4E068039B9842B8BF184681E74F
:104AE0000123324649464046D04701303FF478AF73
:104AF0000135E36803995B1AAB42F1DCEAE7002574
:104B000004F11906F5E700BF725E0008835E000835
:104B100038B5294B05460C46186818B1036A0BB91D
:104B2000FFF72EFCB4F90C30190722D4DA0607D4AB
:104B300009222A6043F040034FF0FF30A38133E0A5
:104B4000580712D5616B41B104F14403994202D078
:104B50002846FFF7A9FC00236363A38923F02403FD
:104B6000A3810023636023692360A38943F00803C2
:104B7000A38123694BB9A38903F42073B3F5007FA4
:104B800003D02146284600F0CEFDB4F90C3013F0D6
:104B900001020AD00022A26062695242A261226927
:104BA00042B913F08000C5D138BD990758BF62697A
:104BB000A260F4E70020F7E70414002038B50023D2
:104BC000054D044608462B60FEF7DCFE431C02D16F
:104BD0002B6803B1236038BD6813002038B500236B
:104BE000064D0446084611462B6000F069FA431C46
:104BF00002D12B6803B1236038BD00BF68130020C9
:104C000038B50023054D044608462B6000F05DFAD8
:104C1000431C02D12B6803B1236038BD6813002008
:104C200008B500F038FBFBF72DFB00F041FBFBF76C
:104C300043FBFAE7704708B5FBF738FDFBF7A2FB2B
:104C4000BDE8084000F04FB808B500F00EF8FEF7D8
:104C500071FFBDE80840FBF7F5BB70477047704730
:104C6000704770477047FBF7FBBB0F20704770B56C
:104C7000002506462C46052C20D8DFE804F0030763
:104C80000B0F13175B210820FBF776FD0C21082082
:104C9000FBF772FDD1210820FBF76EFD8021082073
:104CA000FBF76AFD00210820FBF766FD6C1C294616
:104CB000E4B208202546FBF75FFD0624A4F10E03AD
:104CC000012B05D85A210820FBF756FD0134D2E705
:104CD000102C05D1BDE870405D210820FBF74CBDCC
:104CE000B31F195DEFE708B5082000F0C2F8BDE872
:104CF0000840082000F0C8B807B5012320F07F4025
:104D000040EA8170019068468DF80030FFF7AFFFF0
:104D100003B05DF804FB10B588B0144604228DF88A
:104D200004300DEB020304930123ADF8143002AB01
:104D3000069302234900ADF80C1003A9ADF80E202C
:104D4000ADF81C30FBF7DEFD50B99DF809309DF839
:104D5000082003F0FC0303EB0223236008B010BD1E
:104D600000233120F9E72DE9F0411D46E5230746F0
:104D700088461646FFF7CFFFC0B943F6095334689B
:104D80002A465C43640BA4F5BB54103CE023414627
:104D900038463460FFF7BFFF40B945F2CD5329686C
:104DA00059434913A1F5374102392960BDE8F08123
:104DB00010B588B00423ADF80E304CF6FC13ADF8F6
:104DC00000300223ADF8143001AB069308234900EC
:104DD000ADF80C1003A91446CDF810D0ADF81C3076
:104DE000FBF790FD38B914B9012008B010BD9DF84B
:104DF00004302370F8E70020F7E770B5002205467D
:104E00000E46FFF7D5FF044660B95020FEF7FCFEC2
:104E1000224631462846FFF7CBFF80F00100C0B2A2
:104E2000000170BD0020FCE7FEE710B53AB1002399
:104E300050F8234041F8234001339A42F8D110BD85
:104E4000002070474FF4004070474FF47A7070476D
:104E5000FEE7EFF3108072B6704700B962B6704794
:104E6000EFF31180302383F31188704780F31188AA
:104E700070474FF060420123D2F8001E83400B437D
:104E80000020C2F8003E70474FF060410122D1F887
:104E9000003E824023EA02030020C1F8003E704732
:104EA00010B588B004460E98009207900D982246DF
:104EB00006909DF8300005900B9804909DF828000E
:104EC00003900020CDE901300B460121FBF72AFDBC
:104ED00008B010BD70B5054614460E46FFF7B9FF81
:104EE0002B685C4034405C402C60BDE87040FFF7AC
:104EF000B4BF08B5FBF774FBBDE808400021FCF720
:104F000089BA0029CCBF01210021FCF783BA022114
:104F10004FF42070FCF7F8BE38B50446FBF74EFBA3
:104F20000546FBF74DFFC0F102012846FFF7E9FFF8
:104F300001210020FDF734F90CB1FCF777FFBDE843
:104F40003840FCF7F5BB7047704770B5054614460E
:104F50000E46FFF77EFF2B685C4034405C402C60BF
:104F6000BDE87040FFF779BF704783695B06FCD5E9
:104F7000C163704700F008B809B100F007B82220FB
:104F800070470121FDF7F8BF0020704770B5064655
:104F90000D46FFF765FF04461E2E55D8DFE806F0E4
:104FA0001019541E212454272A542D5430335436BA
:104FB000393C543F54425454455448544B4E51008C
:104FC000FBF7E2FA002628602046FFF74FFF304645
:104FD00070BD4FF4C070FCF771FAF3E74FF4207026
:104FE000F9E74FF44070F6E74FF46070F3E74FF4E1
:104FF0000070F0E74FF48060EDE74FF44060EAE7BF
:105000004FF4C060E7E74FF4F060E4E74FF4B060BE
:10501000E1E74FF4D060DEE74FF41060DBE74FF4D8
:10502000E060D8E74FF4A060D5E74FF41860D2E70E
:105030004FF42860CFE74FF48070CCE74FF4306036
:10504000C9E74FF42060C6E700202126BBE7FDF743
:10505000BDBF10B56FF00404204605210134FEF7F2
:1050600021F94C2CF8D110BD70B50C46154610B97D
:10507000FEF74CF938B143682BB12A462146BDE80A
:10508000704000681847232070BDF7B50D461646DE
:105090001C4648B103B901AC87685FB1234632466C
:1050A00029460068B84706E0FEF730F904B901ACBC
:1050B0000028F1D1232003B0F0BD00207047FEE7A7
:1050C0004FF4005300204B607047012070470020D0
:1050D000704707B5002001AB0190FFF7D6FF01989C
:1050E000002808BF4FF0FF3003B05DF804FB80F8E4
:1050F0002C10704790F82C007047826BD36C43F0F3
:105100000403D364704710B50446826B9369590653
:10511000FCD5002394F841101A4694F84000FDF79E
:1051200057F9002394F843101A4694F84200FDF70B
:105130004FF994F84830DA0707D5002394F8451062
:105140001A4694F84400FDF743F994F848309B0759
:1051500007D5002394F847101A4694F84600FDF747
:1051600037F9A06B0021C36C23F00403C364FDF77F
:1051700079FDE06B0021FCF779F9002010BD08B53E
:10518000806BFFF7F2FE002008BD38B50468237E6F
:10519000A06B33B9C36C23F00403C36401232376EB
:1051A00038BD637E23B394F82D300BB30025132153
:1051B00084F83550FFF7D9FEA36BDA6C42F0040295
:1051C000DA645B6ADBB2112B0DD1012384F8343031
:1051D0003022237A534303F1A04303F58023DB6E8F
:1051E000013B2363DCE7132BDAD184F83450EFE77B
:1051F000C36C23F00403C364D2E700230B70704731
:10520000F0B587B01F4600230D46164604468DF8BC
:105210001730A8B1C3610DF11701FEF7C5FC9DF869
:1052200017207AB9BDF83430294602939DF8303002
:105230002046CDE900733346FEF71CFC07B0F0BDF5
:105240002220FBE70320F9E700210846FDF768BEAE
:1052500000F00101830748BF41F002010020FDF783
:1052600025BE38B5FFF7FCFD04460020FDF748FEDB
:10527000830700F0010548BF45F0020500F0030177
:105280000020FDF72FFE2846FEF7DAFC2046BDE899
:105290003840FFF7EBBD08B5FBF72AF8FFF7CBFC6A
:1052A000FFF7D2FCFFF7D9FCBDE80840FFF7D6BCFA
:1052B00008B5FFF7D4FCFFF7D3FCFFF7D2FCBDE83D
:1052C0000840FFF7CFBC2DE9F8430746884614464F
:1052D0000026D4E90195B9F1010905D52468002C0F
:1052E000F7D13046BDE8F883AB89012B07D9B5F972
:1052F0000E30013303D029463846C047064368358F
:10530000E9E710B50C46B1F90E10FFF785F8002853
:10531000ABBF636DA3891B1823F48053ACBF6365D7
:10532000A38110BD2DE9F0411F468B8905460C462F
:10533000DB05164605D502230022B1F90E10FFF752
:1053400059F8A3893246B4F90E10284623F4805345
:10535000A3813B46BDE8F041FFF770B810B50C469D
:10536000B1F90E10FFF746F8431CA38915BF60651D
:1053700023F4805343F48053A38118BFA38110BD4D
:10538000B1F90E10FFF726B802440346934200D14C
:10539000704703F8011BF9E77047704770470A44EC
:1053A000431E914200D1704710B511F8014B914254
:1053B00003F8014FF9D110BD9368013B002B9360B6
:1053C00010B408DA9469A34201DB0A2903D15DF81D
:1053D000044B00F037B91368581C10600846197068
:1053E0005DF8044B7047F8B506460F461446D518CD
:1053F000AC4201D1002007E03A4614F8011B3046C8
:10540000FFF7DAFF431CF3D1F8BD2DE9F04716464C
:1054100098468A6807460B690C46DDF8209093424F
:10542000B8BF1346336091F843200AB101333360AB
:105430002368990642BF336802333360256815F04C
:10544000060506D104F1190AE36832689B1AAB42DB
:105450002BDC94F843302268003B18BF01239206EE
:1054600030D404F1430241463846C847013023D0C6
:1054700023681A3454F80A2C03F00603042B0ABFDD
:1054800054F80E5C002533684FF0000608BFED1A93
:1054900054F8123C08BF25EAE5759342C4BF9B1A35
:1054A000ED18B5421AD1002008E0012352464146CA
:1054B0003846C847013003D14FF0FF30BDE8F087D0
:1054C0000135C1E7E1185A1C30200233224481F82B
:1054D000430094F8451082F84310C2E701232246A6
:1054E00041463846C8470130E6D00136D9E7B1F920
:1054F0000C202DE9F041170705460C4656D44B68A1
:10550000002B02DC0B6C002B3DDDE66A002E3AD04E
:10551000002312F480522F68216A2B6025D0626D1F
:10552000A389580705D56368D21A636B0BB1236C46
:10553000D21A216A0023E66A2846B047411C24D0CB
:105540000023636023692360A389DA0400D56065C2
:10555000616B2F60B9B104F14403994202D028462F
:10556000FEF7A2FF002363630DE001232846B04746
:10557000461C0246D4D12B68002BD1D01D2B01D064
:10558000162B2AD12F6000202EE02A68B4F90C30A7
:1055900042B11D2A01D0162A21D10023636023695C
:1055A0002360D5E7626022692260CEE70F69002F91
:1055B000E9D093070E680F600CBF4B690023A6EB80
:1055C00007088B60B8F1000FDDDD43463A46216ADB
:1055D0002846A66AB047002808DCB4F90C3043F02E
:1055E00040034FF0FF30A381BDE8F0810744A8EBF2
:1055F0000008E7E738B50B6905460C4613B90025E6
:10560000284638BD18B1036A0BB9FEF7B9FEB4F9E4
:105610000C30002BF3D0626ED00704D4990502D46D
:10562000A06DFFF7BAFE28462146FFF760FF636EC4
:105630000546DA07E4D4A3899B05E1D4A06DFFF702
:10564000ADFEDDE7F8B50E461446054618B1036A0F
:105650000BB9FEF795FEA369A360A3891A0701D5CC
:10566000236943B921462846FFF752FA18B14FF093
:10567000FF373846F8BD2368F6B222693746981AD4
:105680006369834205DC21462846FFF7B3FF002803
:10569000EDD1A368013BA36023685A1C22601E70F1
:1056A000431C62699A4204D0A389DB07E1D50A2E24
:1056B000DFD121462846FFF79DFF0028D9D0D6E745
:1056C000C9B20346024410B59342184601D10020E6
:1056D00003E0047801338C42F6D110BD70B50C465E
:1056E000B1F90E1096B0154600291E460CDAA389B2
:1056F000002113F0800F14BF40234FF4806300207B
:1057000031602B6016B070BD6A46FFF767FA00285B
:10571000EDDB019901F47041A1F500535942594163
:105720004FF48063EBE78B89F7B59D0706460C467F
:1057300007D504F14703236023610123636103B0AC
:10574000F0BD01AB6A46FFF7C9FF009F0546304632
:105750003946FEF715FF48B9B4F90C309A05EED476
:1057600023F0030343F00203A381E2E7A38920604F
:1057700043F08003A381019BC4E904075BB1B4F942
:105780000E103046FFF73CFA28B1A38923F003033B
:1057900043F00103A381A3891D43A581CFE7000046
:1057A000F8B500BFF8BC08BC9E467047F8B500BF0E
:1057B000F8BC08BC9E4670475261772054656D70F6
:1057C0003A2025642C205261772048756D69646900
:1057D00074793A2025750A004572726F72207265DD
:1057E0006164696E672073656E736F7220646174A3
:1057F000610A00000000005B0000080700000000D4
:10580000A0860100000000002E2E2F6175746F67C6
:10581000656E2F736C5F696F73747265616D5F691C
:105820006E69745F75736172745F696E7374616EB3
:105830006365732E63000000050000000000000097
:1058400000C2010000050000001000000000000080
:1058500000000000433A2F55736572732F4469614D
:105860007A4D65636F746572722F53696D706C69E0
:105870006369747953747564696F2F53444B732F44
:1058800073696D706C69636974795F73646B2F7091
:105890006C6174666F726D2F6472697665722F69C0
:1058A000326373706D2F7372632F736C5F69326331
:1058B00073706D2E6300633A5C75736572735C641C
:1058C00069617A6D65636F746572725C73696D701E
:1058D0006C696369747973747564696F5C73646B04
:1058E000735C73696D706C69636974795F73646B01
:1058F0005C706C6174666F726D5C656D6C69625C26
:10590000696E635C656D5F6770696F2E6800FF0785
:105910000F00FF033F001E000003433A2F5573653D
:1059200072732F4469617A4D65636F746572722F6B
:1059300053696D706C696369747953747564696FC8
:105940002F53444B732F73696D706C69636974795D
:105950005F73646B2F706C6174666F726D2F656D11
:105960006C69622F7372632F656D5F636D752E6353
:1059700000433A2F55736572732F4469617A4D6500
:10598000636F746572722F53696D706C69636974AB
:105990007953747564696F2F53444B732F73696D1A
:1059A000706C69636974795F73646B2F706C617478
:1059B000666F726D2F656D6C69622F7372632F65F0
:1059C0006D5F656D752E6300433A2F557365727375
:1059D0002F4469617A4D65636F746572722F5369E4
:1059E0006D706C696369747953747564696F2F5352
:1059F000444B732F73696D706C69636974795F735D
:105A0000646B2F706C6174666F726D2F656D6C695D
:105A1000622F7372632F656D5F6770696F2E63000D
:105A2000FF070F00FF033F002E2E2F73696D706C70
:105A300069636974795F73646B5F323032342E3618
:105A40002E302F706C6174666F726D2F656D6C698E
:105A5000622F7372632F656D5F6932632E63000876
:105A6000091108433A2F55736572732F4469617A9F
:105A70004D65636F746572722F53696D706C6963E5
:105A800069747953747564696F2F53444B732F7322
:105A9000696D706C69636974795F73646B2F706C86
:105AA0006174666F726D2F656D6C69622F737263BE
:105AB0002F656D5F6C646D612E6300633A5C757376
:105AC0006572735C6469617A6D65636F7465727227
:105AD0005C73696D706C69636974797374756469FA
